:100000000C9424060C946B060C946B060C946B06F3
:100010000C946B060C946B060C946B060C946B069C
:100020000C946B060C946B060C94DE0D0C94B00EC5
:100030000C940D1E0C946B060C946B060C946B06C2
:100040000C946B060C946B060C946B060C946B066C
:100050000C946B060C94811E0C946B060C946B062E
:100060000C946B060C946B060C946B060C946B064C
:100070000C946B060C946B060C946B060C946B063C
:100080000C946B060C946B060C946B060C946B062C
:100090000C946B060C946B060C946B060C946B061C
:1000A0000C946B060C946B060C946B061D0F3F0FA3
:1000B00032103F0F3210840FA70F3210FC0F0F10B9
:1000C000DF13DF13091409146414981488168816B2
:1000D000AF1488169A159A15601688168816751624
:1000E00046A4018C028C048C088C00F000000000F7
:1000F000000000003A023B020000680269026A0246
:100100006B026C026D026E026F027002710272026B
:100110007302450168010000C0C1C2C3C40000539E
:1001200057545556494A4B5F60614C4C4D4E5C5D8F
:100130005E50AA52A9595A5B4F50514F622A632808
:100140000000C0C1C2C3C4000053575455563A3BC7
:100150003C5F60614C3D3E3F5C5D5E5040414259BA
:100160005A5B4F434445622A63280000D9C1C2C389
:10017000C40000DA5754555668696A5F60614C6B79
:100180006C6D5C5D5E506E6F70595A5B4F7172732F
:10019000622A63280000D9C1C2C3C40000DA5754E0
:1001A0005556CDCECF5F60614CD0D1D25C5D5E50F4
:1001B000D3D4D5595A5B4FD6D7D8622A63280000CA
:1001C00001C1C2C3C40000C5575455560101015FA7
:1001D00060614C0101015C5D5E50010101595A5B97
:1001E0004F010101622A63280A002530325800625B
:1001F0006F756E6365213A20000A4B6579626F6105
:1002000072642073746172742E0A004B6579626F98
:1002100061726420696E69742E0A005B445D005B44
:10022000435D0010036500720067006F007000619D
:10023000006400000012036E00690063006B006838
:1002400000610063006B0000000403090409028DD3
:1002500000050100A03209040000010301010009AA
:1002600021110100012240000705810308000A094D
:100270000401000103010200092111010001224DC6
:10028000000705820308000A0904020001030000B8
:10029000000921110100012236000705830308002F
:1002A0000A090403000203000000092111010001F2
:1002B0002222000705840320000107050403200013
:1002C00001090404000103000000092111010001DB
:1002D00022390007058503200001120110010000EA
:1002E0000008EDFE60600100010200010501090641
:1002F000A101050719E029E71500250195087501F9
:1003000081020508190129059505750191029501DC
:10031000750391010507190029F71500250195F8C6
:1003200075018102C00631FF0974A101097515002C
:1003300026FF009520750881020976150026FF002A
:10034000952075089102C005010980A1018502165A
:1003500001002637001A81002AB700751095018127
:1003600000C0050C0901A1018503160100269C02AD
:100370001A01002A9C02751095018100C00501092F
:1003800002A1010901A1000509190129051500258E
:10039000019505750181029501750381010501092A
:1003A0003009311581257F950275088106093815B8
:1003B00081257F950175088106050C0A3802158193
:1003C000257F950175088106C0C005010906A101B8
:1003D000050719E029E71500250195087501810237
:1003E0009501750881010508190129059505750113
:1003F00091029501750391010507190029FF150068
:1004000026FF00950675088100C0636F6E73756DD9
:1004100065723A20253034580A0073797374656D1B
:100420003A20253034580A000A002530325820007E
:100430006B6579626F6172643A20004C45443A20E2
:10044000253032580A00253032583A20253038629B
:1004500025730A00722F632030313233343536373A
:100460000A0064656C5F6B65795F6269743A20634A
:10047000616E27742064656C3A20253032580A007A
:100480006164645F6B65795F6269743A2063616E71
:100490002774206164643A20253032580A00646F62
:1004A0006E652E0A00626F6F746D616769632073F9
:1004B00063616E3A202E2E2E2000290A0025750039
:1004C0002F002575005D28002564002000256400AC
:1004D000200025640020002564007C00253032586F
:1004E000006D6F7573656B6579205B62746E7C78E7
:1004F0002079207620685D287265702F61636C29F1
:100500003A205B006D6B5F776865656C5F74696D41
:10051000655F746F5F6D6178203D2025640A006D12
:100520006B5F776865656C5F6D61785F737065653B
:1005300064203D2025640A006D6B5F74696D655F02
:10054000746F5F6D6178203D2025640A006D6B5FDC
:100550006D61785F7370656564203D2025640A00D5
:100560006D6B5F696E74657276616C203D202564E9
:100570000A006D6B5F64656C6179203D2025640A1B
:10058000006D6B5F776865656C5F74696D655F743E
:100590006F5F6D6178203D2025640A006D6B5F7789
:1005A0006865656C5F6D61785F7370656564203D3B
:1005B0002025640A006D6B5F74696D655F746F5F01
:1005C0006D6178203D2025640A006D6B5F6D617858
:1005D0005F7370656564203D2025640A006D6B5F64
:1005E000696E74657276616C203D2025640A006D29
:1005F0006B5F64656C6179203D2025640A000A0008
:10060000257500363A20776865656C5F74696D659D
:100610005F746F5F6D61783A20000A0025750035C0
:100620003A20776865656C5F6D61785F73706565AA
:10063000643A20000A00257500343A2074696D651B
:100640005F746F5F6D61783A20000A002575003392
:100650003A206D61785F73706565643A20000A0026
:10066000257500323A20696E74657276616C286D6A
:1006700073293A20000A00257500313A2064656C20
:100680006179282A31306D73293A20000A092D201A
:1006900056616C756573202D0A004D3E004D256432
:1006A0003E20003F007365742064656661756C745C
:1006B0000A00433E200077686572652064656C74AB
:1006C000613A20637572736F723D25642C207768E0
:1006D00065656C3D25640A53656520687474703ADD
:1006E0002F2F656E2E77696B6970656469612E6F57
:1006F00072672F77696B692F4D6F7573655F6B65D7
:1007000079730A000A092D204D6F7573656B657941
:10071000202D0A4553432F713A09717569740A31C6
:100720003A0964656C6179282A31306D73290A327F
:100730003A09696E74657276616C286D73290A33A3
:100740003A096D61785F73706565640A343A0974BB
:10075000696D655F746F5F6D61780A353A09776816
:1007600065656C5F6D61785F73706565640A363AC4
:1007700009776865656C5F74696D655F746F5F6D3F
:1007800061780A0A703A097072696E742076616C39
:100790007565730A643A09736574206465666175EA
:1007A0006C74730A75703A092B310A646F776E3A6C
:1007B000092D310A706775703A092B31300A70675C
:1007C000646F776E3A092D31300A0A73706565647B
:1007D000203D2064656C7461202A206D61785F7310
:1007E00070656564202A2028726570656174202F09
:1007F0002074696D655F746F5F6D6178290A003FD1
:10080000004D3E2000433E20004C25640A000A09AA
:100810002D20436F6E736F6C65202D0A4553432F57
:10082000713A09717569740A6D3A096D6F7573656E
:100830006B65790A000A092D204D61676963202DD7
:100840000A643A0964656275670A783A0964656200
:100850007567206D61747269780A6B3A0964656224
:100860007567206B6579626F6172640A6D3A09641D
:1008700065627567206D6F7573650A763A097665EE
:100880007273696F6E0A733A097374617475730ACF
:10089000633A09636F6E736F6C65206D6F64650AF0
:1008A000302D343A096C61796572302D3428463127
:1008B000302D4634290A506175733A09626F6F749E
:1008C0006C6F616465720A653A09656570726F6D77
:1008D0000A6E3A094E4B524F0A000A002575002E47
:1008E0006E6B726F3A20000A002575002E737761D7
:1008F000705F6261636B736C6173685F6261636B8D
:1009000073706163653A20000A002575002E7377C5
:1009100061705F67726176655F6573633A20000A94
:10092000002575002E6E6F5F6775693A20000A001A
:100930002575002E737761705F72616C745F7267EA
:1009400075693A20000A002575002E737761705F83
:100950006C616C745F6C6775693A20000A002575DC
:10096000002E636170736C6F636B5F746F5F636F96
:100970006E74726F6C3A20000A002575002E737732
:1009800061705F636F6E74726F6C5F636170736CC4
:100990006F636B3A20000A0025303258006B65798E
:1009A0006D61705F636F6E6669672E7261773A2062
:1009B000000A002575002E6D6F7573653A20000AD8
:1009C000002575002E6B6579626F6172643A2000B4
:1009D0000A002575002E6D61747269783A20000A4C
:1009E000002575002E656E61626C653A20000A0074
:1009F000253032580064656275675F636F6E6669A3
:100A0000672E7261773A20000A00257500646566DA
:100A100061756C745F6C617965723A20003F004EBD
:100A20004B524F3A206F66660A004E4B524F3A20A7
:100A30006F6E0A0074696D65725F7265616433324E
:100A400028293A202530346C580A006B6579626F8A
:100A50006172645F6E6B726F3A2025580A006B6595
:100A600079626F6172645F69646C653A2025580A27
:100A7000006B6579626F6172645F70726F746F632F
:100A80006F6C3A2025580A00686F73745F6B657944
:100A9000626F6172645F6C65647328293A2025581F
:100AA0000A000A092D20537461747573202D0A0001
:100AB0004743433A20352E342E30204156522D4C98
:100AC0004942433A20322E302E30204156525F4167
:100AD0005243483A20617672350A004F5054494FCC
:100AE0004E533A204C55464120424F4F544D4147BA
:100AF0004943204D4F5553454B4559204558545275
:100B0000414B455920434F4E534F4C4520434F4D89
:100B10004D414E44204E4B524F20343039360A005E
:100B20004255494C443A20756E6B6E6F776E2028A3
:100B300031313A35313A3535204D6172203132202C
:100B400032303139290A005649443A203078464536
:100B50004544286E69636B6861636B292050494482
:100B60003A20307836303630286572676F706164AD
:100B700029205645523A203078303030310A00442E
:100B80004553433A20742E6D2E6B2E206B6579628F
:100B90006F617264206669726D7761726520666F3D
:100BA00072206572676F646F786C0A000A092D20E5
:100BB00056657273696F6E202D0A000A6D6F75732A
:100BC000653A206F66660A000A6D6F7573653A2094
:100BD0006F6E0A000A6B6579626F6172643A206F0A
:100BE00066660A000A6B6579626F6172643A206F0B
:100BF0006E0A000A6D61747269783A206F66660A3F
:100C0000000A6D61747269783A206F6E0A000A6496
:100C1000656275673A206F6E0A000A6465627567DF
:100C20003A206F66660A000A0A626F6F746C6F6121
:100C30006465722E2E2E2000433E20006565636F92
:100C40006E6669673A0A000011241FBECFEFDAE032
:100C5000DEBFCDBF04B603FE27C080912B03909169
:100C60002C03A0912D03B0912E038730904BA74009
:100C7000B04BD1F410922B0310922C0310922D0341
:100C800010922E0314BE84B7877F84BF0FB6F894EA
:100C9000A895809160008861809360001092600048
:100CA0000FBEE0E0F8E3099511E0A0E0B1E0EAE56D
:100CB000F6E502C005900D92AE33B107D9F723E0F7
:100CC000AEE3B1E001C01D92AB32B207E1F70E9482
:100CD000A00A0C942B2B0C940000FF93EF93E0914F
:100CE0003E01F0913F01309709F00995EF91FF9196
:100CF0000895FC018591803011F0EFDFFBCF08955E
:100D0000FF27E0E230E247FF0CC0419597FF09C0A2
:100D1000EDE26095709580959095611D711D811D26
:100D2000911D27FF02C0219530E350E2AA27660FEC
:100D3000771F881F991FAA1FA41710F0A41B639583
:100D40005A95A9F7AA3008F0A95FA05DAF93F39573
:100D5000611571058105910541F7ED3211F4EF93AD
:100D6000F395F21718F43F93F395FBCF8F91B5DF0E
:100D7000FA95E1F70895E991F9918591803021F094
:100D8000853219F0AADFF9CF089520E0E894559153
:100D90005532C1F3503311F4689455915A3348F4E5
:100DA000505390F3220F022E220F220F200D250FF9
:100DB000F4CF0EF4219589919991533619F3533755
:100DC00029F1533559F1BC0188279927E8945C36FD
:100DD00021F48991999168945591543639F446EFEC
:100DE0007EF077FF0DC08FEF9FEF0AC055374AE0C6
:100DF00039F0583540E121F0523642E009F00895CB
:100E0000FF93EF937DDFEF91FF91B7CFFF93EF93C8
:100E1000FC0181918030B9F360DFFBCFFF93EF934A
:100E200068DFF1CFDF93CF93CDB7DEB72596A3DF91
:100E3000CF91DF910895811103C080E090E002C05E
:100E400087E797E790930108809300089AE088E18C
:100E50000FB6F894A895809360000FBE9093600041
:100E6000FFCF611103C081E00E941B0708953E98E7
:100E700046988AB18C768AB98BB18C768BB96E988C
:100E8000769808950E94370780B38F7080BB81B336
:100E9000806F81BB84B1817F84B985B18E6085B953
:100EA000E6E4F1E0A0E4B1E011921D9281E0EC34BF
:100EB000F807D1F70895BF92CF92DF92EF92FF9299
:100EC0000F931F93CF93DF9380E4E82E81E0F82EF9
:100ED0008701C0E0D1E095E0B92E2AEEC22E21E0D4
:100EE000D22EC33099F028F4C13051F0C23059F0FD
:100EF00004C0C43071F0C53079F0519A59980EC0D1
:100F0000509A58980BC0549A5C9808C03E9A4698DC
:100F100005C0579A5F9802C06E9A769880EA8A95C3
:100F2000F1F783B182FB882780F98D271B9902C0D6
:100F300092E001C090E0892B199902C094E001C0B1
:100F400090E0282F292B9FB19095892F881F882703
:100F5000881F880F880F880F822B7E9902C090E12E
:100F600001C090E0892B7D9902C090E201C090E021
:100F7000892B7C9902C090E401C090E0892BD801B4
:100F80009C91981739F18C9380910001882301F18D
:100F900080910C0380FF04C08FEE91E00E947906DF
:100FA00080910C0380FF0CC0809100011F928F93F1
:100FB000DF92CF920E9412070F900F900F900F9028
:100FC00080910C0380FF04C088EE91E00E947906B6
:100FD000B09200010E943707CF5F0F5F1F4FC630EE
:100FE00009F07FCF809100018823B9F08150809370
:100FF0000001882339F0EFE9FFE03197F1F700C0F5
:1010000000000BC0E6E4F1E0D7018D917D018193F2
:10101000B6E4EB16B1E0FB06B9F781E0DF91CF91C2
:101020001F910F91FF90EF90DF90CF90BF900895A8
:10103000E82FF0E0EA5BFE4F8081089581FF02C057
:10104000259A01C025982D980895809170020895E1
:10105000CF93DF9300D01F92CDB7DEB79C01809174
:101060002103843019F593E099833B832A8390937D
:10107000E9008FEF9091E800815095FD06C095ED55
:101080009A95F1F700008111F5CF8091E80085FF76
:101090000DC040E050E063E070E0CE0101960E9498
:1010A000D20B8091E8008E778093E8000F900F902C
:1010B0000F90DF91CF910895CF93DF9300D01F92CF
:1010C000CDB7DEB720912103243031F522E029830A
:1010D000805891099B838A8383E08093E9008FEF96
:1010E0009091E800815095FD06C095ED9A95F1F735
:1010F00000008111F5CF8091E80085FF0DC040E030
:1011000050E063E070E0CE0101960E94D20B809126
:10111000E8008E778093E8000F900F900F90DF919A
:10112000CF910895209121032430F1F422E02093FF
:10113000E9002FEF3091E800215035FD06C035ED74
:101140003A95F1F700002111F5CF2091E80025FF35
:101150000BC040E050E065E070E00E94D20B80914F
:10116000E8008E778093E8000895CF93DF93209175
:101170002103243009F04AC0EC018091100188233A
:10118000E1F0809111018823C1F085E08093E900AE
:1011900081E8815049F09091E80095FD05C09AE200
:1011A0009A95F1F700C0F5CF8091E80085FF2EC039
:1011B00040E050E060E270E019C081E08093E90017
:1011C00081E8815059F09091E80095FD07C0EFE368
:1011D000F1E03197F1F700C00000F3CF8091E80013
:1011E00085FF14C040E050E068E070E0CE010E944E
:1011F000D20B8091E8008E778093E80080E2FE01B8
:10120000A0E5B2E001900D928A95E1F7DF91CF91D0
:101210000895CF93C0914E01C1110BC00E944B1E87
:10122000643C79408105910520F081E080934E0176
:10123000C1E08C2FCF910895CF93C82F0E94090948
:10124000882309F448C00FB607FE45C080912103EA
:10125000843009F040C08091E9008F702091EC004B
:10126000922F917020FD90E8892B94E09093E900F3
:101270009091EB0090FF2CC09091EE0097FF28C05A
:101280009091040120910301291709F449C020918C
:10129000E80025FF1DC0E0910101F0910201E90F76
:1012A000F11D30819F5F20910501922390930401ED
:1012B0003093F1009091E80095FDE2CF9091E80025
:1012C00090FFDECF9091E8009E779093E800D8CF12
:1012D0008F708093E9008091030190E0AC014F5F33
:1012E0005F4F30910501232F30E0242335234091B7
:1012F000040150E02417350789F020910101309155
:101300000201F901E80FF91FC083809103018F5F8B
:10131000909105018923809303010BC08FEF0AC0D0
:101320009091E80095FFD4CFC093F1008F70809327
:10133000E90080E0CF9108958FE192E00E94790664
:1013400080912003811109C00E94630D0E94C00D8D
:101350008091E20084608093E20008958BE192E046
:101360000E9479061092200308950895089542E09E
:1013700061EC81E00E94DC0C42E061EC82E00E94C2
:10138000DC0C42E061EC83E00E94DC0C42E261ECA8
:1013900084E00E94DC0C42E261EC85E00C94DC0C01
:1013A00080912303833009F455C030F4813071F00B
:1013B000823009F48EC008958A3009F47AC08B30E7
:1013C00009F460C0893009F09CC020C080912203DC
:1013D000813A09F096C08091E800877F8093E80009
:1013E0008091260390912703892B21F460E280E508
:1013F00092E003C060E080E090E070E00E941D0C8D
:101400008091E8008B778093E80008958091220313
:10141000813209F076C080912603909127030097CE
:1014200019F0049709F06DC08091E800877F8093E0
:10143000E8008091E80082FD05C0809121038111C0
:10144000F8CF5FC08091F100809370028091E80036
:101450008B7753C080912203813A09F052C080916A
:10146000260390912703892B09F04BC08091E80057
:10147000877F8093E8008091E80080FFFCCF809117
:10148000100136C0809122038132D9F58091260364
:1014900090912703892BA9F58091E800877F80939D
:1014A000E8000E94110D80912403809310010C9498
:1014B000A81680912203813221F58091E800877F70
:1014C0008093E8000E94110D8091250380937102A2
:1014D000089580912203813AA1F48091E800877FEA
:1014E0008093E8008091E80080FFFCCF809171023A
:1014F0008093F1008091E8008E778093E8000C944F
:10150000110D089508950C94820A809170028093C1
:101510004F011092700280E00E941E080E94B611D6
:101520000C94A8160C94850A0E94CC1D80911F0370
:10153000882329F00E94F51D81110C94BC0B08959D
:10154000CF9384B7877F84BF0FB6F894A895809116
:101550006000886180936000109260000FBE90E090
:1015600080E80FB6F89480936100909361000FBEFD
:101570008CE199E00E94A01D86E091E00E944A1053
:101580008BE092E00E9479060E94830A0E94091172
:101590000E94630D0E94C00D8091E20084608093E0
:1015A000E20078940E940B1180912103843019F09D
:1015B0000E945B07F9CF0E94820A89EF91E00E94A6
:1015C0007906C4E080912103853019F40E94940AC1
:1015D000F9CF0E9411112091E4003091E500809133
:1015E0004C0190914D012817390761F38091E40077
:1015F0009091E50090934D0180934C010E94090960
:10160000882301F3809121038430E1F68091E90081
:101610008F702091EC00922F917020FD90E8892B23
:10162000C093E9009091EB0090FF43C09091EE00D1
:1016300097FF3FC09091040120910301291709F100
:101640002091E80025FF1DC0E0910101F091020109
:10165000E90FF11D30819F5F209105019223909346
:1016600004013093F1009091E80095FDE3CF909153
:10167000E80090FFDFCF9091E8009E779093E8001C
:10168000D9CF9091F3002091F20030E0392B232B39
:1016900081F09091E80090FF0CC09091E80095FFD8
:1016A00003C01092F100F9CF9091E8009E779093DB
:1016B000E8008F708093E90085CF0E94091E809119
:1016C0004F018093700208950C945D0B292F3327EE
:1016D00023303105C9F060F42130310581F022302A
:1016E000310509F041C08DE890E02DE432E040C0C2
:1016F00021323105E1F02232310531F135C082E18C
:1017000090E02AED32E034C099278130910549F00C
:1017100028F0029749F5E3E2F2E005C0E9E4F2E0DF
:1017200002C0E5E3F2E0849190E09F0121C06530C2
:10173000D8F4E62FF0E0EE0FFF1FE75DFE4F2081AB
:10174000318189E090E014C0653070F470E0FB01F5
:10175000EE0FFF1FE15EFE4F20813181FB01E65E4F
:10176000FE4F808190E004C080E090E020E030E017
:10177000FA0131832083089580E189BD82E189BD2A
:1017800009B400FEFDCF8091D8008F7D8093D800F2
:101790008091E00082608093E0008091E00081FD14
:1017A000FCCF0895CF92DF92EF92FF920F931F9399
:1017B000CF93DF93EC018B017A010E94300D8111F0
:1017C00033C0E114F10439F0F70180819181081BE5
:1017D000190BC80FD91FC12CD12C0115110519F1F6
:1017E0008091E80085FD16C08091E8008E77809397
:1017F000E800E114F10449F0F70180819181C80EFD
:10180000D91ED182C08285E00FC00E94300D88238E
:1018100021F30AC089918093F10001501109FFEF73
:10182000CF1ADF0ADACF80E0DF91CF911F910F91BD
:10183000FF90EF90DF90CF90089520912803309192
:1018400029032617370748F06115710539F42091EF
:10185000E8002E772093E80001C0B901FC0120E0E8
:101860006115710579F1809121038823F1F18530AB
:10187000F1F18091E80083FD3CC08091E80082FD99
:101880002EC08091E80080FFEBCF2091F300809183
:10189000F20090E0922B6115710551F088309105AE
:1018A00038F421912093F100615071090196F3CF32
:1018B00021E0089709F020E08091E8008E7780937E
:1018C000E800CECF2111CFCF0AC080912103882319
:1018D00061F0853061F08091E80083FD0AC080915D
:1018E000E80082FFF2CF80E0089582E0089583E06F
:1018F000089581E008952091280330912903261747
:10190000370748F06115710539F42091E8002E770A
:101910002093E80001C0B901FC0120E061157105C8
:1019200091F180912103882309F440C0853009F4A6
:101930003FC08091E80083FD3DC08091E80082FDBA
:101940002FC08091E80080FFE9CF2091F3008091C3
:10195000F20090E0922B6115710559F088309105E5
:1019600040F424912093F100319661507109019661
:10197000F2CF21E0089709F020E08091E8008E770F
:101980008093E800CBCF2111CCCF0AC080912103F6
:10199000882361F0853061F08091E80083FD0AC002
:1019A0008091E80082FFF2CF80E0089582E0089500
:1019B00083E0089581E00895982F973068F590931B
:1019C000E900981739F07091EC002091ED005091EA
:1019D000F00003C0242F762F50E021FD02C09F5F4E
:1019E000ECCF3091EB003E7F3093EB003091ED0077
:1019F0003D7F3093ED003091EB0031603093EB0090
:101A00007093EC002093ED005093F0002091EE00D5
:101A100027FDE5CF80E008958F708093E90081E095
:101A200008958091220387FF11C08091E80082FD14
:101A300005C0809121038111F8CF11C08091E80089
:101A40008B770BC080912103882349F08091E800B7
:101A500080FFF8CF8091E8008E778093E8000895AA
:101A60002091E4003091E50095E64091EC00842F50
:101A7000817040FF23C08091E80080FD1DC08091EF
:101A80002103882399F0853099F08091EB0085FD42
:101A900011C04091E4005091E5002417350729F367
:101AA000915011F09A01E1CF84E0089582E0089509
:101AB00083E0089581E0089580E008954091E80072
:101AC00042FFDDCF08950E94D10D0E94D90DE0EEB6
:101AD000F0E0808181608083E8EDF0E080818F77A5
:101AE000808319BCA7EDB0E08C918E7F8C938081B0
:101AF0008F7E80831092200308950F931F93CF93BE
:101B0000DF930E94D10D0E94D90DC8EDD0E08881ED
:101B10008F77888388818068888388818F7D888398
:101B200019BC1092210310921D0310921F031092F2
:101B30001E0300EE10E0F80180818B7F8083888196
:101B40008160888342E060E080E00E94DC0CE1EE8E
:101B5000F0E080818E7F8083E2EEF0E08081816022
:101B60008083808188608083F80180818E7F80837C
:101B7000888180618883DF91CF911F910F910895B3
:101B8000E8EDF0E080818F7E8083E7EDF0E08081FA
:101B90008160808384E082BF81E0809320030C9485
:101BA0007D0DE8EDF0E080818E7F80831092E20071
:101BB00008951092DA001092E10008951F920F929A
:101BC0000FB60F9211242F933F934F935F936F9310
:101BD0007F938F939F93AF93BF93EF93FF938091E6
:101BE000E10082FF0BC08091E20082FF07C080917C
:101BF000E1008B7F8093E1000E94B6098091DA00BA
:101C000080FF1FC08091D80080FF1BC08091DA0048
:101C10008E7F8093DA008091D90080FF0DC080E133
:101C200089BD82E189BD09B400FEFDCF81E08093CA
:101C300021030E949C0905C019BC109221030E9437
:101C4000AE098091E10080FF19C08091E20080FF21
:101C500015C08091E2008E7F8093E2008091E200C7
:101C600080618093E2008091D80080628093D800E8
:101C700019BC85E0809321030E94920A8091E100C3
:101C800084FF30C08091E20084FF2CC080E189BDD8
:101C900082E189BD09B400FEFDCF8091D8008F7D1F
:101CA0008093D8008091E1008F7E8093E100809145
:101CB000E2008F7E8093E2008091E2008160809359
:101CC000E20080911D03882311F084E007C0809119
:101CD000E30087FD02C081E001C083E0809321031F
:101CE0000E94640B8091E10083FF29C08091E20093
:101CF00083FF25C08091E100877F8093E10082E02F
:101D00008093210310921D038091E1008E7F8093C8
:101D1000E1008091E2008E7F8093E2008091E200FA
:101D200080618093E20042E060E080E00E94DC0C91
:101D30008091F00088608093F0000E94B509FF91C7
:101D4000EF91BF91AF919F918F917F916F915F9133
:101D50004F913F912F910F900FBE0F901F901895AC
:101D60001F920F920FB60F9211242F933F934F9310
:101D70005F936F937F938F939F93AF93BF93CF9313
:101D8000DF93EF93FF93C091E900CF708091EC0057
:101D9000D82FD17080FDD0E81092E9008091F0003A
:101DA000877F8093F00078940E94F40E1092E900EF
:101DB0008091F00088608093F000CD2BCF70C093AD
:101DC000E900FF91EF91DF91CF91BF91AF919F918A
:101DD0008F917F916F915F914F913F912F910F90D4
:101DE0000FBE0F901F9018951F93CF93DF93CDB721
:101DF000DEB7AA970FB6F894DEBF0FBECDBFE2E202
:101E0000F3E08091F100819323E0EA32F207C9F711
:101E10000E94D0098091E80083FF24C180912203B1
:101E200090912303492F50E04A30510508F01AC120
:101E3000FA01EA5AFF4F0C94E02A803881F0823888
:101E400009F010C1809126038F708093E900809182
:101E5000EB0085FB882780F91092E90006C080918D
:101E60001E0390911F03911182609091E800977F6B
:101E70009093E8008093F1001092F100C8C0282FE1
:101E80002D7F09F0EFC0882319F0823061F0EAC09D
:101E900080912403813009F0E5C0933009F080E09F
:101EA00080931F032BC080912403811127C0809150
:101EB00026038F7009F4D6C08093E9002091EB00CF
:101EC00020FF1CC0933021F48091EB00806214C08D
:101ED0009091EB0090619093EB0021E030E0A9013C
:101EE00002C0440F551F8A95E2F74093EA00109212
:101EF000EA008091EB0088608093EB001092E9008B
:101F00008091E800877F86C08111ACC010912403C6
:101F10001F778091E3008078812B8093E30080918C
:101F2000E800877F8093E8000E94110D8091E8000F
:101F300080FFFCCF8091E30080688093E300111163
:101F400002C082E001C083E0809321038BC08058EF
:101F5000823008F087C080912403909125038C3D46
:101F600053E0950779F583E08A838AE289834FB746
:101F7000F894DE01139620E03EE051E2E32FF0E01A
:101F800050935700E49120FF03C0E295EF703F5F4C
:101F9000EF708E2F90E0EA3010F0C79601C0C09627
:101FA0008D939D932F5F243149F74FBF8091E800B7
:101FB000877F8093E8006AE270E0CE0101960E947C
:101FC0001D0C14C0AE014F5F5F4F609126030E944D
:101FD000660BBC01892B09F445C09091E800977FFE
:101FE0009093E80089819A810E947B0C8091E8009F
:101FF0008B778093E80036C08038A1F58091E800A7
:10200000877F8093E80080911D038093F100809189
:10201000E8008E778093E8000E94110D23C08111A3
:1020200021C0809124039091250399270297D4F42D
:102030008091E800877F8093E8008091240380935B
:102040001D030E94110D80911D03811106C0809116
:10205000E30087FD02C081E001C084E0809321039A
:102060000E94B7098091E80083FF0AC08091E800D0
:10207000877F8093E8008091EB0080628093EB0083
:10208000AA960FB6F894DEBF0FBECDBFDF91CF91F9
:102090001F91089590937702809376020895E091BE
:1020A0007602F0917702309721F00190F081E02DD7
:1020B000099480E00895EF92FF920F931F93CF93BE
:1020C000DF93E0917602F09177023097B1F18C01C5
:1020D0000280F381E02D099580910C0382FF2DC0D1
:1020E00080FF04C080E394E00E947906E80110E2DA
:1020F0008AE2E82E84E0F82E80910C0380FF0BC06A
:1021000088811F928F93FF92EF920E9412070F9087
:102110000F900F900F90115021961111EDCF8091DB
:102120000C0380FF0AC088E294E0DF91CF911F91F9
:102130000F91FF90EF900C947906DF91CF911F9152
:102140000F91FF90EF900895E0917602F091770261
:10215000309721F00480F581E02D09940895CF9304
:10216000DF9320917402309175022817390709F125
:102170009093750280937402E0917602F091770259
:102180003097B9F0EC010680F781E02D0995809138
:102190000C0382FF0EC080FF0CC0DF93CF938AE157
:1021A00094E09F938F930E9412070F900F900F90CF
:1021B0000F90DF91CF910895CF93DF93209172021A
:1021C000309173022817390709F1909373028093B5
:1021D0007202E0917602F09177023097B9F0EC014B
:1021E0000084F185E02D099580910C0382FF0EC0DB
:1021F00080FF0CC0DF93CF938AE094E09F938F938E
:102200000E9412070F900F900F900F90DF91CF91C7
:1022100008950C94B7110E94361E0E9442070C9438
:102220003C20BF92CF92DF92EF92FF920F931F93C9
:10223000CF93DF9300D000D01F92CDB7DEB70E94BE
:102240005B0709E712E0F12C8F2D0E941808B82EC9
:10225000F801C080C82639F4F3940F5F1F4FF6E0F1
:10226000FF12F2CF30C080910C0381FD0E94B811A3
:10227000D12CEE24E3948C2D8E21F9F0D982FA82B0
:1022800091E08B2D8E2109F490E09B830E943F1EEC
:102290008160782F9D838C8349815A816B818D81E8
:1022A0000E94EE1149815A816B817C818D810E944F
:1022B000B81DF80180818E258083D394EE0CF7E061
:1022C000DF12D9CFC9CF8FEF89838A831B820E9407
:1022D0003F1E8160782F9D838C8349815A816B8159
:1022E0008D810E94EE110E94B71D0E94C6230E949C
:1022F0004F1090917802891741F10E944F108093FE
:10230000780290910C0392FF0EC090FF0CC01F92B8
:102310008F938BE394E09F938F930E9412070F900B
:102320000F900F900F90809178020F900F900F9068
:102330000F900F90DF91CF911F910F91FF90EF9031
:10234000DF90CF90BF900C94C91D0F900F900F900D
:102350000F900F90DF91CF911F910F91FF90EF9011
:10236000DF90CF90BF9008950C941E0808950895B3
:10237000EF92FF920F931F93CF93DF9384E594E046
:102380000E947906C0E0D0E083E3E82E81E0F82ED9
:1023900006E414E08C2F0E9418080E94A51DFF92ED
:1023A000EF921F928F93DF93CF931F930F930E940F
:1023B000120721968DB79EB708960FB6F8949EBF68
:1023C0000FBE8DBFC630D10529F7DF91CF911F9188
:1023D0000F91FF90EF90089508950895CF93DF93A4
:1023E000CDB7DEB72B970FB6F894DEBF0FBECDBFCB
:1023F000942F4F83252F588769877A878B874A8543
:102400005B85452B31F02F3F31F481E09F3F19F47C
:1024100003C081E001C080E080FD07C04F81588586
:1024200069857A858B850E94B81DDE01119686E04C
:10243000FD0111928A95E9F785E0FE01379601903A
:102440000D928A95E1F749815A816B817C818D815A
:102450009E810E94B3192B960FB6F894DEBF0FBE73
:10246000CDBFDF91CF910895CF93882309F4E8C0C1
:10247000C82F8238A1F40E944F1081FDE1C089E38A
:102480000E949B1C0E947A1D2FEF81EE94E0215048
:1024900080409040E1F700C0000089E315C0833818
:1024A000C1F40E944F1080FDCBC083E50E949B1CAD
:1024B0000E947A1D2FEF81EE94E0215080409040E1
:1024C000E1F700C0000083E50E94EB1CCF910C9463
:1024D0007A1D8438A1F40E944F1082FDB1C087E4B8
:1024E0000E949B1C0E947A1D2FEF81EE94E02150E8
:1024F00080409040E1F700C0000087E4E5CF8CEF1A
:102500008C0F813A48F48C2F0E944628811198C084
:102510008C2F0E949B1CDACF80E28C0F883048F40D
:10252000C77081E001C0880FCA95EAF70E94401D7C
:10253000CDCF8BE58C0F833078F4C53A29F0C63ABD
:1025400031F083E890E005C081E890E002C082E8C5
:1025500090E0CF910C94AF1088E58C0F853108F096
:102560006FC0C83A61F1C93A69F1CA3A71F1CB3A20
:1025700079F1CC3A81F1CD3A89F1CE3A91F1CF3A65
:1025800099F1C13BA1F1C03BA9F1C23BB1F1C33B01
:10259000B9F1C43BC1F1C53BC9F1C63BD1F1C73B61
:1025A000D9F1C83BE1F1C93BE9F1CA3BF1F1CB3BC1
:1025B000F9F1CC3B09F43FC080E090E03EC082EEF0
:1025C00090E03BC089EE90E038C08AEE90E035C0E4
:1025D00085EB90E032C086EB90E02FC083EB90E07B
:1025E0002CC084EB90E029C087EB90E026C08CECF7
:1025F00090E023C08DEC90E020C083E891E01DC006
:102600008AE891E01AC082E991E017C084E991E07C
:1026100014C081E292E011C083E292E00EC084E235
:1026200092E00BC085E292E008C086E292E005C02D
:1026300087E292E002C08AE292E0CF910C94DC1033
:10264000CF910895882309F466C08238A1F40E94CE
:102650004F1081FF60C089E30E949B1C0E947A1D7D
:102660002FEF81EE94E0215080409040E1F700C0D0
:10267000000089E315C08338B9F40E944F1080FF31
:102680004AC083E50E949B1C0E947A1D2FEF81EEB9
:1026900094E0215080409040E1F700C0000083E5C5
:1026A0000E94EB1C0C947A1D8438A1F40E944F10F8
:1026B00082FF31C087E40E949B1C0E947A1D2FEF8D
:1026C00081EE94E0215080409040E1F700C000008E
:1026D00087E4E6CF9CEF980F913A10F390E2980FC1
:1026E000983050F4877091E001C0990F8A95EAF70D
:1026F000892F0E94461DD6CF9BE5980F933020F47A
:1027000080E090E00C94AF10885A853120F480E08E
:1027100090E00C94DC100895882321F00E94401D65
:102720000C947A1D0895882321F00E94461D0C9474
:102730007A1D0895CF92DF92EF92FF920F931F932D
:10274000CF93DF9300D000D01F92CDB7DEB76C01DE
:1027500085E0F601DE01119601900D928A95E1F770
:10276000F60140815181238134812115310531F0F9
:102770005F3F31F491E04F3F19F403C091E001C095
:1027800090E090FDC5C2F601F280E580E2948FE012
:10279000E822722F3D832C836F2D8D810E94171CA0
:1027A0008C010E94161C0E94061BE12FE295EF701F
:1027B0008E2F90E0FC01E05AFF4F0C94E02A812F0D
:1027C000807F1F70882311F01295107FFF2049F041
:1027D000112309F452C2812F0E94531D0E947A1DB9
:1027E0004CC2802F0E942213112309F491C2812F21
:1027F0000E94591D0F900F900F900F900F90DF9136
:10280000CF911F910F91FF90EF90DF90CF900C949C
:102810007A1D812F807F1F70803211F01295107FFA
:10282000002319F0013009F12BC0FF20A9F0EE20A0
:1028300059F1F1E0812FEF1228C00F900F900F9007
:102840000F900F90DF91CF911F910F91FF90EF901C
:10285000DF90CF900C94631DEE2021F081E0E8160C
:1028600009F456C20E94661D2DC0FF20E9F0E5E084
:10287000EE1508F44DC20E943D1D812329F022C0AF
:10288000FF20F1F0E11015C0812F0F900F900F90F5
:102890000F900F90DF91CF911F910F91FF90EF90CC
:1028A000DF90CF900C948C13F4E0FE1508F430C246
:1028B00009C0F601858180FFE0C18F708583E4CF78
:1028C000E110EEC1812F61C1812F869586958370BD
:1028D00019F08130B9F01CC2FF2019F0C8019370C3
:1028E00002C080E090E00F900F900F900F900F903B
:1028F000DF91CF911F910F91FF90EF90DF90CF90DC
:102900000C94AF10FF2019F0C801937002C080E052
:1029100090E00F900F900F900F900F90DF91CF915C
:102920001F910F91FF90EF90DF90CF900C94DC10EF
:10293000802FFF2019F00E944C2202C00E94B42276
:102940000F900F900F900F900F90DF91CF911F91EC
:102950000F91FF90EF90DF90CF900C943923812F4F
:10296000837009F070C0F110D3C1202F22952695F5
:102970002770220F220F602F6F70862F90E0A0E04B
:10298000B0E06C017D01022E04C0CC0CDD1CEE1CFD
:10299000FF1C0A94D2F704FF12C08FE090E0A0E081
:1029A000B0E004C0880F991FAA1FBB1F2A95D2F759
:1029B000BC01CD01609570958095909503C060E055
:1029C00070E0CB011695169513701230B1F040F5FA
:1029D0006C297D298E299F29113031F10F900F909C
:1029E0000F900F900F90DF91CF911F910F91FF905B
:1029F000EF90DF90CF900C942B1B6C297D298E29B2
:102A00009F290F900F900F900F900F90DF91CF9113
:102A10001F910F91FF90EF90DF90CF900C94451B8A
:102A20000E942B1BC701B6010F900F900F900F90C3
:102A30000F90DF91CF911F910F91FF90EF90DF905A
:102A4000CF900C94111BFF2019F0812F817001C0D1
:102A50008695882309F45CC1202F2295269527703E
:102A6000220F220F602F6F70862F90E0A0E0B0E061
:102A70006C017D01022E04C0CC0CDD1CEE1CFF1C81
:102A80000A94D2F704FF12C08FE090E0A0E0B0E01B
:102A900004C0880F991FAA1FBB1F2A95D2F7BC013B
:102AA000CD01609570958095909503C060E070E0D1
:102AB000CB011695169513701230B1F040F56C29C4
:102AC0007D298E299F29113031F10F900F900F90A1
:102AD0000F900F90DF91CF911F910F91FF90EF908A
:102AE000DF90CF900C94F21B6C297D298E299F29B1
:102AF0000F900F900F900F900F90DF91CF911F913B
:102B00000F91FF90EF90DF90CF900C94041C0E94E7
:102B1000F21BC701B6010F900F900F900F900F900E
:102B2000DF91CF911F910F91FF90EF90DF90CF90A9
:102B30000C94E01B003FC1F128F480E4800F803248
:102B400050F096C0023F09F45EC008F449C0033F4C
:102B500009F46CC08DC0F02FF071EF2E812F8F71B2
:102B6000FF2051F00E94791B802FEE2019F08295F2
:102B7000807F8BCE8F7089CE0E949A1B802FEE2093
:102B800019F08295807F01C08F700F900F900F9089
:102B90000F900F90DF91CF911F910F91FF90EF90C9
:102BA000DF90CF900C949313FF20A9F084E08E1552
:102BB00008F4AEC0812F8F710F900F900F900F907F
:102BC0000F90DF91CF911F910F91FF90EF90DF90C9
:102BD000CF900C94BF1BE5E0EE1508F499C0EACF46
:102BE000FF2099F0812F8F710F900F900F900F9011
:102BF0000F90DF91CF911F910F91FF90EF90DF9099
:102C0000CF900C94791BFF2069F3812F8F710F9067
:102C10000F900F900F900F90DF91CF911F910F9118
:102C2000FF90EF90DF90CF900C949A1BFF2089F0DB
:102C3000812F8F710F900F900F900F900F90DF9159
:102C4000CF911F910F91FF90EF90DF90CF900C9458
:102C5000641B0F900F900F900F900F90DF91CF910A
:102C60001F910F91FF90EF90DF90CF900C945F1B1E
:102C7000FF2099F0EE2009F4B5CF802F0F900F9030
:102C80000F900F900F90DF91CF911F910F91FF90B8
:102C9000EF90DF90CF900C943412EE2009F4B5CF72
:102CA000802F0F900F900F900F900F90DF91CF918A
:102CB0001F910F91FF90EF90DF90CF900C94221313
:102CC000412F4F70602FC6010E945C1F0F900F9024
:102CD0000F900F900F90DF91CF911F910F91FF9068
:102CE000EF90DF90CF900C94611A412F4F70602FBE
:102CF000C6010F900F900F900F900F90DF91CF9122
:102D00001F910F91FF90EF90DF90CF900C943107BF
:102D10000F900F900F900F900F90DF91CF911F9118
:102D20000F91FF90EF90DF90CF9008950E94601D6B
:102D30000E942F1D0E947A1D0E946B240E9439233D
:102D400080E090E00E94AF1080E090E00C94DC10F6
:102D50000E94501D0C9496161F93CF93DF9300D0C2
:102D600000D01F92CDB7DEB7942F4983252F5A8309
:102D70006B837C838D834C815D81452B31F02F3FAC
:102D800031F481E09F3F19F403C081E001C080E08D
:102D9000182F117080FD31C049815A816B817C816F
:102DA0008D810E94171C292F22952F702C3030F412
:102DB0002A30A0F42250223030F022C02C30C9F04A
:102DC0002F30B9F01DC0853A28F48430C0F4823029
:102DD00028F415C090E2980F983088F0883E30F4BF
:102DE000803E68F48450813A58F409C0803F41F431
:102DF00006C093FB112710F903C010E001C011E0D9
:102E0000812F0F900F900F900F900F90DF91CF9127
:102E10001F910895CF93DF9300D000D01F92CDB7BC
:102E2000DEB70F900F900F900F900F90DF91CF9122
:102E30000895CF93DF9300D000D000D0CDB7DEB798
:102E400026960FB6F894DEBF0FBECDBFDF91CF91AF
:102E500008951F93CF93DF93C0917F0216E0809176
:102E60008002C81799F0D0E01C9FF0011D9FF00D63
:102E70001124EF57FD4F408151816281738184811C
:102E800095810E9419172196C770E9CFDF91CF91E4
:102E90001F9108954091B1025091B2026091B30226
:102EA0007091B4028091B5029091B6020C941917FA
:102EB000CF938091B60282958F7009F05FC08091A8
:102EC000B302882309F45AC080917F02B091800236
:102ED0007091B102A091B2024091B4025091B5023A
:102EE00091E07F3F09F090E0692FC6E08B1709F46D
:102EF00045C04115510521F0AF3F21F020E003C04E
:102F000021E001C0262F90E020FD35C0C89FF001D0
:102F1000C99FF00D1124EF57FD4F21812A132BC0BB
:102F20002081271328C02281211125C023813481CB
:102F30002417350710F421503109241B350B283C88
:102F40003105C8F42091B6022F7020612093B6029B
:102F500026E0289FF001299FF00D1124EA57FD4F2C
:102F600080818F708061808381EB92E00E949A1350
:102F7000CF910C94291701968770B8CFCF910895FF
:102F8000AF92BF92CF92DF92EF92FF920F931F9377
:102F9000CF93DF93CDB7DEB761970FB6F894DEBF5E
:102FA0000FBECDBF7C0185E0F701DE011D960190CB
:102FB0000D928A95E1F7D7014C9111965C9111978A
:102FC0001296DC90129713960D911C9114973091E4
:102FD000B1026091B2028091B4029091B502009763
:102FE00031F06F3F31F421E03F3F19F403C021E09D
:102FF00001C020E0B22FB170BB2E20FD6EC1A090A9
:10300000B302AA2009F4CCC02091B6020817190710
:1030100028F0F801E81BF90BCF0104C080959095CA
:10302000800F911FCC24C394883C910580F0C12C63
:10303000207F09F0A1C0702F198B088B6D2D898915
:103040000E940A1781EB92E00E949A13BDC0822F62
:10305000807F09F056C0561315C0431313C0CD2C02
:10306000D11010C02F7020612093B6020E944A1721
:1030700081EB92E00E949A138091B602D7011596D7
:103080008C935FC10115110531F05F3F31F481E090
:103090004F3F19F403C081E001C080E080FD03C010
:1030A00081E08D2502C080E090E0B82FB170CB2E7A
:1030B00080FF1CC080917F022091800236E0821741
:1030C00009F41CC190E0389FF001399FF00D1124E4
:1030D000EF57FD4F6181561306C06081461303C050
:1030E0006281D61203C001968770E9CFCD2CDD2016
:1030F00009F427C18091B60281608093B602C12C89
:1031000020C1561308C0431306C0D11004C08091DB
:10311000B602D701B6C04D875E87DF86702F198B48
:10312000088B6D2D89890E94AC16882399F1DD20CA
:1031300089F12091B602822F82958F7090E00297DC
:1031400074F08091B1029091B20298878F831986B2
:103150001B870A872C87CE0107960E949A1386E068
:10316000F701A1EBB2E001900D928A95E1F70E9480
:1031700058170E944A1711C0561781F14D875E8774
:10318000DF86702F198B088B6D2D89890E94AC16F4
:10319000811138C0C7010E949A13CC24C394D1C0B6
:1031A0000817190708F446C0F801E81BF90BCF010E
:1031B000883C910508F443C0C12C702F198B088BF3
:1031C0006D2D89890E940A17E1EBF2E086E0DF01AC
:1031D0001D928A95E9F70E944A17B3C04313CECFD8
:1031E000D110CCCF8091B602F7018583C7010E9430
:1031F0009A1386E0E1EBF2E0DF011D928A95E9F790
:10320000CA2C9FC0DD2031F22091B602822F829518
:103210008F7090E002970CF4A2CF8091B102909150
:10322000B2029A8389831B821D830C832E83CE0175
:10323000019693CF80959095800F911FB9CFCD2C9B
:10324000DD2009F4A7CF561333C0431331C02091BA
:10325000B60220FD24C0822F82958F70482F50E047
:1032600041155105E1F0D70115962C9315974F3074
:10327000510549F08F5F982F9295907F822F8F7024
:10328000892B15968C93C7010E949A1386E0F7014B
:10329000A1EBB2E001900D928A95E1F79CCF86E018
:1032A000F701A1EBB2E001900D928A95E1F749C0D8
:1032B0004D875E87DF86702F198B088B6D2D89896E
:1032C0000E94AC1681114BCF8091B6028160809331
:1032D000B602C7010E949A1334C0DD2009F45ACF08
:1032E0004D875E87DF86702F198B088B6D2D89893E
:1032F0000E94AC16882309F44DCF31CF702F198B63
:10330000088B6D2D89890E94171C292F22952F70FB
:10331000223028F49F7039F0811105C00BC0243091
:1033200028F49F7049F4805E883020F0C7010E9425
:103330009A13BC2CCB2C05C0F7019581907F99F78F
:10334000F9CF8C2D61960FB6F894DEBF0FBECDBFBE
:10335000DF91CF911F910F91FF90EF90DF90CF9071
:10336000BF90AF9008951F93CF93DF93CDB7DEB793
:103370002C970FB6F894DEBF0FBECDBF4F83588792
:1033800069877A878B879C87CE0107960E94C01732
:103390008823D1F09F8188852A853B85232B31F0B6
:1033A0008F3F31F481E09F3F19F403C081E001C0F9
:1033B00080E080FD47C04F81588569857A858B857F
:1033C0009C850E9419173EC086E0FE013796DE01FB
:1033D000119601900D928A95E1F7FF81E8856A8543
:1033E0007B856115710531F0EF3F31F481E0FF3FDE
:1033F00019F403C081E001C080E080FD23C020916A
:10340000800230E0C90101968770992740917F02C0
:1034100050E084179507F1F1F983EA837D836C838B
:1034200096E0929FD001939FB00D1124AF57BD4FEE
:10343000FE01319601900D929A95E1F780938002FA
:103440000E94291716E080917F02909180028917CF
:1034500071F1189FC00111248F579D4F0E94C01712
:10346000882329F1E0917F021E9FF0011124EF577C
:10347000FD4F4081518162817381848195810E94D9
:10348000191780917F0290E00196877099278093A9
:103490007F02D9CF0E94A8161092800210927F025C
:1034A000E1EBF2E086E0DF011D928A95E9F72C96C8
:1034B0000FB6F894DEBF0FBECDBFDF91CF911F9145
:1034C0000895DF92EF92FF920F931F93CF93DF93B4
:1034D000FC01892B09F488C0E12CF12CDD24D39464
:1034E000EF0121968491853709F460C058F4843740
:1034F00008F04EC0843008F068C08130D1F08230CE
:1035000071F172C0883709F45BC050F4863709F452
:1035100053C0873709F068C08E2D0E944D1D52C0E0
:103520009CE7980F903708F05FC08F770E942213B6
:103530004EC08F010E5F1F4FFE01849190E2980FE5
:10354000983050F48770FD2D01C0FF0F8A95EAF77F
:103550008F2F0E94531D15C00E94341214C08F017A
:103560000E5F1F4FFE01849190E2980F983068F42F
:103570008770FD2D01C0FF0F8A95EAF78F2F0E94FB
:10358000591D0E947A1DE80122C00E942213FBCF20
:10359000CF010296FE01C491CC2361F0EFE9FFE078
:1035A0003197F1F700C00000C150F6CFCF0102966D
:1035B000FE01F490EC010BC00E943D1DE82E07C0F7
:1035C0000E94501D0E947A1D02C00E9434128F2D4D
:1035D000882341F0EFE9FFE03197F1F700C00000E8
:1035E0008150F6CFFE017CCFDF91CF911F910F91DB
:1035F000FF90EF90DF9008956093E1027093E202F4
:103600008093E3029093E4020C94C81D08956093A4
:10361000E5027093E6028093E7029093E8020C942F
:10362000C71D0F931F930091E5021091E6022091B0
:10363000E7023091E802602B712B822B932B609371
:10364000E5027093E6028093E7029093E8021F91EF
:103650000F910C94C71D0F931F930091E5021091D9
:10366000E6022091E7023091E80260237123822371
:1036700093236093E5027093E6028093E7029093B0
:10368000E8021F910F910C94C71D0F931F93009197
:10369000E5021091E6022091E7023091E8026027EE
:1036A0007127822793276093E5027093E602809347
:1036B000E7029093E8021F910F910C94C71D60E000
:1036C00070E0CB010C94FC1A0F931F9341E050E083
:1036D00060E070E08A019B0104C0000F111F221FEF
:1036E000331F8A95D2F7C901B8011F910F910C942D
:1036F000FC1A0F931F9341E050E060E070E004C0BB
:10370000440F551F661F771F8A95D2F78091E102FB
:103710009091E202A091E302B091E4028A019B0140
:10372000082B192B2A2B3B2BC901B8011F910F9194
:103730000C94FC1A0F931F9341E050E060E070E09E
:1037400004C0440F551F661F771F8A95D2F7409516
:103750005095609570958091E1029091E202A09160
:10376000E302B091E4028A019B01082319232A2372
:103770003B23C901B8011F910F910C94FC1A0F93C0
:103780001F9341E050E060E070E004C0440F551F1B
:10379000661F771F8A95D2F78091E1029091E2022D
:1037A000A091E302B091E4028A019B010827192746
:1037B0002A273B27C901B8011F910F910C94FC1ACD
:1037C0000F931F930091E1021091E2022091E30216
:1037D0003091E402602B712B822B932B1F910F9160
:1037E0000C94FC1A0F931F930091E1021091E202D6
:1037F0002091E3023091E40260237123822393231A
:103800001F910F910C94FC1A0F931F930091E102EA
:103810001091E2022091E3023091E40260277127C7
:10382000822793271F910F910C94FC1A08958F9271
:103830009F92AF92BF92DF92EF92FF920F931F93EE
:10384000CF93DF9300D000D01F92CDB7DEB76B834C
:103850007C838D838A018C819D81892B31F01F3F70
:1038600031F481E04F3F19F403C081E001C080E0F2
:1038700080FF03C080E090E04DC08B818823D1F1B0
:103880008090E1029090E202A090E302B090E40206
:103890008091E5029091E602A091E702B091E802E2
:1038A000882A992AAA2ABB2A8FE1E82EF12CD50171
:1038B000C4010E2C04C0B695A795979587950A94D8
:1038C000D2F780FD06C081E0E81AF10880F7D12C1C
:1038D00007C0DE2CB8018E2D0E94781F019799F346
:1038E00087E0189FF0011124E954FD4FE00FF11D0E
:1038F000D08209C087E0189FF0011124E954FD4FE0
:10390000E00FF11DD08009831A8369817A818D2DA2
:103910000E94781F0F900F900F900F900F90DF91E3
:10392000CF911F910F91FF90EF90DF90BF90AF90DC
:103930009F908F90089590911001992379F1909123
:103940001101992359F1982F9695969596959F3147
:10395000A1F0E0911201F0911301E90FF11D8770C0
:1039600021E030E0A90102C0440F551F8A95E2F71B
:10397000CA019181892B8183089590910C0390FF56
:1039800029C01F928F9380E894E09F938F930E94A9
:1039900012070F900F900F900F9008952091120131
:1039A00030911301F90132969FEF40E05191851754
:1039B00089F09F3F19F4511101C0942F4F5F4E3190
:1039C000A9F79F3F39F0F901E90FF11D97FDFA952D
:1039D00082830895089590911001992381F1909127
:1039E0001101992361F1982F9695969596959F319F
:1039F000A9F0E0911201F0911301E90FF11D877018
:103A000021E030E0A90102C0440F551F8A95E2F77A
:103A1000CA018095918189238183089590910C0337
:103A200090FF1CC01F928F9382E694E09F938F9328
:103A30000E9412070F900F900F900F900895E09141
:103A40001201F09113019F01225E3F4F9281891371
:103A500001C012823196E217F307C1F7089581E0A1
:103A600090E0E0911201F0911301E80FF91F10822C
:103A7000019680329105A9F7089580910B0308956E
:103A800090910B03892B80930B030895809590915F
:103A90000B03892380930B03089580930B030895F0
:103AA00010920B03089590910A03892B80930A03C7
:103AB0000895809590910A03892380930A030895BD
:103AC00010920A0308958093E90208951092E90282
:103AD00008958091120190911301FC0131969C018F
:103AE000205E3F4F80E0919191118F5FE217F307C5
:103AF000D1F70895E0911201F091130180910B0329
:103B00008083E0911201F0911301908180910A036A
:103B1000892B80838091E902882361F0E091120172
:103B2000F09113019081892B80830E94691D81117E
:103B30001092E90280911201909113010C945B1094
:103B400090933F0180933E0108958295982F93733F
:103B500044E0949F900111248C7C86958695282BB7
:103B6000822F8575880F2A7A2695822B08950895CD
:103B7000CF93DF9300D000D01F92CDB7DEB70F9068
:103B80000F900F900F900F90DF91CF9108950895AF
:103B900008950C94B411089580912103843021F18B
:103BA00010920D0320E488E190E00FB6F894A895F8
:103BB000809360000FBE2093600083B7817F846094
:103BC00083BF83B7816083BF7894889583B78E7FE6
:103BD00083BF0FB6F894A8958091600088618093A8
:103BE0006000109260000FBE0895CF930E94EC1108
:103BF0000E945B070E94ED11C0E08C2F0E94180804
:103C0000811104C0CF5FC630C1F701C081E0CF9100
:103C100008950E94B6110C94A8161F920F920FB629
:103C20000F9211248F939F93AF93BF9380910D03B5
:103C3000811113C080910E0390910F03A091100386
:103C4000B09111034196A11DB11D80930E03909375
:103C50000F03A0931003B0931103BF91AF919F91F5
:103C60008F910F900FBE0F901F90189582E084BD2A
:103C700093E095BD9AEF97BD80936E0008952FB79E
:103C8000F89480910E0390910F03A0911003B091CE
:103C900011032FBF08952FB7F89460910E03709110
:103CA0000F0380911003909111032FBF0895CF92BD
:103CB000DF92EF92FF920F931F932FB7F8944091EA
:103CC0000E0350910F0360911003709111032FBFE9
:103CD0006A017B01EE24FF248C0120E030E0C01655
:103CE000D106E206F30610F4415051099A01281B4F
:103CF000390BC9011F910F91FF90EF90DF90CF908A
:103D000008951F920F920FB60F9211248F939F93D5
:103D1000AF93BF9380910E0390910F03A091100376
:103D2000B09111030196A11DB11D80930E039093D4
:103D30000F03A0931003B0931103BF91AF919F9114
:103D40008F910F900FBE0F901F9018950E94630DDA
:103D5000F8942FEF87EA91E6215080409040E1F7F8
:103D600000C0000087E090EBDC0180932B03909370
:103D70002C03A0932D03B0932E039CE088E10FB693
:103D8000F894A895809360000FBE90936000FFCFD9
:103D90008D3B60F4883A90F5853A28F5843008F533
:103DA000813009F086C081E090E00895883E98F463
:103DB000803EB8F48F3B09F07CC00E94A8162FEF1C
:103DC00080E792E0215080409040E1F700C0000081
:103DD0000E94A61E6EC0803F08F46BC090E0906504
:103DE000089590E00895853A21F0863A21F033E86D
:103DF00003C031E801C032E820E458C0883A51F1EC
:103E0000893A59F18A3A59F18B3A59F18C3A59F178
:103E10008D3A59F18E3A59F18F3A59F1813B59F166
:103E2000803B59F1823B59F1833B59F1843B59F175
:103E3000853B59F1863B61F1873B61F1883B61F13C
:103E4000893B61F18A3B61F18B3B61F18C3B61F114
:103E500030E001C032EE24E429C039EEFCCF3AEE66
:103E6000FACF35EBF8CF36EBF6CF33EBF4CF34EBBC
:103E7000F2CF37EBF0CF3CECEECF3DECECCF33E8BC
:103E800005C03AE803C032E901C034E925E40EC0B8
:103E900031E20BC033E209C034E207C035E205C0AD
:103EA00036E203C037E201C03AE226E4832F922FC4
:103EB000089580E090E0089580E090E008952AE27F
:103EC000829FC0011124FC0127E0729FE00DF11DCB
:103ED0001124E60FF11DEA5EFE4F84910895E82F4C
:103EE000F0E0EE0FFF1FE05AF040859194910895A5
:103EF0000E945F1F803EA8F4803C00F5813309F4E6
:103F00005CC038F4893209F452C08A3209F45BC0CB
:103F10005FC08933B1F08238A1F0853309F441C024
:103F200057C0833E41F128F4803E99F0823EB9F0BB
:103F30004FC0863E31F1873E71F14AC00E946F1F2B
:103F4000089590912A0390FD02C091FF41C080EE38
:103F50003FC080912A0380FFFACF89E339C0809166
:103F60002A0382FF0CC080912A0384FF02C080E0F4
:103F70002FC083EE2DC080912A0382FFF4CF82EE02
:103F800027C080912A0383FF0AC080912A0384FD01
:103F9000EECF87EE1DC080912A0383FFF6CF86EE19
:103FA00017C080912A0385FF06C089E211C0809165
:103FB0002A0385FFFACF85E30BC080912A0386FF91
:103FC00006C08AE205C080912A0386FFFACF81E30A
:103FD0000E94C81E0895CF92DF92EF92FF920F9336
:103FE0001F93CF936C01C0E08C2F0E94180800E053
:103FF00010E0E82EF12CC701002E02C095958795A0
:104000000A94E2F780FF15C0602F7C2F80E00E94A9
:10401000781F8C159D0559F0292F207E392F307C73
:1040200011F0203A31F490E0C816D90611F481E07D
:1040300009C00F5F1F4F07301105E9F6CF5FC6308B
:1040400099F680E0CF911F910F91FF90EF90DF9054
:10405000CF900895CF93DF93EC018CE290E00E9423
:10406000EB1F882329F0CE01DF91CF910C94EB1F39
:1040700080E0DF91CF910895CF930E94A421811118
:1040800002C00E948A2185EA94E00E947906C5E672
:10409000C15049F00E945B078FE39CE90197F1F75B
:1040A00000C00000F5CF8EE994E00E94790689E215
:1040B00090E00E942A2081112BC18AE290E00E94A8
:1040C0002A2081110E948A2185E090E00E942A2006
:1040D00081110E94A61E0E94CB1D0E94AF218093D9
:1040E0000C0387E090E00E942A208823C1F18BE135
:1040F00090E00E942A20882351F080910C0381FBDC
:10410000222720F991E0922790FB81F90FC08EE0E1
:1041100090E00E942A20882361F080910C0382FBAA
:10412000222720F991E0922790FB82F980930C03DB
:1041300016C080E190E00E942A2090910C03882311
:1041400041F093FB222720F981E0822780FB93F93D
:1041500004C0892F809580FB90F990930C03809187
:104160000C030E94B3210E94C12180932A0380EE98
:1041700090E00E942A20882341F080912A03982F02
:10418000909590FB80F980932A0389E390E00E9448
:104190002A20882359F080912A0381FB222720F9C5
:1041A00091E0922790FB81F980932A0382EE90E0C0
:1041B0000E942A20882359F080912A0382FB22271B
:1041C00020F991E0922790FB82F980932A0386EEF2
:1041D00090E00E942A20882359F080912A0383FBD3
:1041E000222720F991E0922790FB83F980932A03FC
:1041F00083EE90E00E942A20882359F080912A03C0
:1042000084FB222720F991E0922790FB84F9809388
:104210002A0385E390E00E942A20882359F08091A8
:104220002A0385FB222720F991E0922790FB85F94C
:1042300080932A0381E390E00E942A20882359F08A
:1042400080912A0386FB222720F991E0922790FB98
:1042500086F980932A0381E190E00E942A20882336
:1042600059F080912A0387FB222720F991E09227B9
:1042700090FB87F980932A0380912A030E94C5212D
:1042800080912A0387FB882780F98093110187E2B8
:1042900090E00E942A20C82F8EE190E00E942A2000
:1042A0008111C2608FE190E00E942A208111C460D8
:1042B00080E290E00E942A208111C86081E290E0B3
:1042C0000E942A208111C06182E290E00E942A208F
:1042D0008111C06283E290E00E942A208111C064B3
:1042E00084E290E00E942A20882311F0C06802C076
:1042F000CC2329F08C2F0E94BC216C2F03C00E947C
:10430000B821682F70E080E090E0CF910C94071BFB
:10431000CF9108956DEE7EEF80E090E00E94162B25
:1043200060E082E090E00E94082B60E083E090E093
:104330000E94082B60E084E090E00E94082B60E07F
:1043400085E090E00C94082B80E090E00E94022B26
:1043500021E08D3E9E4F09F020E0822F089582E0FB
:1043600090E00C94FA2A682F82E090E00C94082BDD
:1043700083E090E00C94FA2A682F83E090E00C949C
:10438000082B84E090E00C94FA2A682F84E090E0F7
:104390000C94082B8091140380FF0BC060911701CF
:1043A00085E0689FB00111247595679575956795AF
:1043B0002BC081FF09C06091170185E0689FB001A3
:1043C00011247595679520C082FF07C06091170181
:1043D00085E0689FB001112417C0909115039923BF
:1043E000D1F060911601961788F72091170185E0AA
:1043F000289F90011124929FA001939F500D11249A
:1044000070E0CA010E94CC2A6038710540F4611541
:10441000710519F406C065E070E0862F08958FE7F6
:10442000089581E008958091140380FF08C0609191
:10443000150170E0759567957595679521C081FFA9
:1044400006C06091150170E07595679519C082FFEF
:1044500004C06091150170E010C09091150399237C
:1044600099F0609114019617A0F780911501899F2A
:10447000C001112470E00E94CC2A6038710540F41C
:104480006115710519F406C061E070E0862F08958A
:104490008FE7089581E00895803F21F40E94CA21AA
:1044A000819504C0813F29F40E94CA21809318039A
:1044B0000895823F21F40E94CA21819504C0833F60
:1044C00029F40E94CA21809317030895893F19F4A3
:1044D0000E94132205C08A3F31F40E941322819565
:1044E0008093190308958B3F21F40E941322819534
:1044F00004C08C3F29F40E94132280931A0308956C
:10450000843F21F480911603816017C0853F21F418
:1045100080911603826011C0863F21F480911603BA
:1045200084600BC0873F21F480911603886005C02A
:10453000883F31F4809116038061809316030895BB
:104540008D3F21F48091140381600BC08E3F21F4D4
:1045500080911403826005C08F3F29F48091140379
:104560008460809314030895803F39F48091180388
:1045700087FF6CC01092180369C0813F29F48091B5
:1045800018031816BCF362C090911703823F29F4F8
:1045900097FF5CC01092170359C0833F19F4191696
:1045A000CCF354C0893F41F48091190318160CF0E4
:1045B0004DC0109219034AC08A3F29F48091190313
:1045C00087FF44C0F6CF8B3F39F480911A0387FFF1
:1045D0003DC010921A033AC08C3F29F480911A030F
:1045E0001816BCF333C0843F21F4809116038E7FEC
:1045F00017C0853F21F4809116038D7F11C0863F3F
:1046000021F4809116038B7F0BC0873F21F48091AA
:104610001603877F05C0883F31F4809116038F7E93
:104620008093160313C08D3F21F4809114038E7F75
:104630000BC08E3F21F4809114038D7F05C08F3F06
:1046400029F4809114038B7F8093140380911703C6
:1046500081110EC08091180381110AC08091190345
:10466000811106C080911A03811102C010921503B6
:10467000089580910C0383FF7EC081EE94E00E9438
:104680007906809116031F928F938CED94E09F938F
:104690008F930E9412078AED94E00E947906809120
:1046A0001703282F082E000C330B3F938F9387EDB1
:1046B00094E09F938F930E94120785ED94E00E94EF
:1046C000790680911803282F082E000C330B3F9396
:1046D0008F9382ED94E09F938F930E94120780ED59
:1046E00094E00E94790680911903282F082E000C6F
:1046F000330B3F938F938DEC94E09F938F930E94A5
:1047000012078BEC94E00E94790680911A03282FFF
:10471000082E000C330B3F938F9388EC94E09F930B
:104720008F930E94120785EC94E00E947906809195
:1047300015031F928F9382EC94E09F938F930E94B6
:10474000120780EC94E00E947906809114031F9276
:104750008F938DEB94E09F938F930E9412078AEBC7
:1047600094E00E9479068DB79EB74C960FB6F894E8
:104770009EBF0FBE8DBF86E193E00E94A4100E94F1
:104780003F1E909313038093120308951F93CF93BA
:10479000DF9380911203909113030E94571EAC0186
:1047A00090911503992321F02091180130E006C063
:1047B000209119018AE0289F900111244217530784
:1047C00008F485C080911703C0911803D091190394
:1047D00010911A03811107C0C11175C0D11173C0A6
:1047E000111171C074C09F3F19F09F5F9093150322
:1047F000181624F40E94CA2180931703809117038E
:1048000087FF05C00E94CA218195809317031C165B
:1048100024F40E94CA21809318038091180387FF13
:1048200005C00E94CA2181958093180360911703E7
:10483000662331F1C0911803CC2311F1062E000C30
:10484000770B880B990B0E94D32923E333E343E3CF
:104850005FE30E94372A0E949B29609317036C2F05
:10486000CC0F770B880B990B0E94D32923E333E3FA
:1048700043E35FE30E94372A0E949B296093180359
:104880001D1624F40E9413228093190380911903AA
:1048900087FF05C00E94132281958093190311168A
:1048A00024F40E94132280931A0380911A0387FF35
:1048B00005C00E941322819580931A03DF91CF9146
:1048C0001F910C9439239F3F09F08FCFA0CFDF9128
:1048D000CF911F910895E6E1F3E085E0DF011D929D
:1048E0008A95E9F71092150310921403089584E055
:1048F00097E00E9479061F9281E08F931F9285E0D6
:104900008F9386EB96E09F938F930E9412070F90F0
:104910000F900F900F900F900F9008958330E9F152
:1049200028F4813061F0823009F10895853009F46E
:1049300062C008F449C0863009F474C008958091BB
:104940001901262F30E0280F311D2F3F310524F4A7
:10495000680F6093190103C08FEF80931901809154
:1049600019011F928F938FEE95E072C0809118010C
:10497000262F30E0280F311D2F3F310524F4680F1A
:104980006093180103C08FEF809318018091180184
:104990001F928F938DED95E05BC080911701262FBC
:1049A00030E0280F311D2F3F310524F4680F60934C
:1049B000170103C08FEF80931701809117011F9299
:1049C0008F938AEC95E044C080911601262F30E049
:1049D000280F311D2F3F310524F4680F6093160115
:1049E00003C08FEF80931601809116011F928F9361
:1049F00085EB95E02DC080911501262F30E0280F22
:104A0000311D2F3F310524F4680F6093150103C059
:104A10008FEF80931501809115011F928F938CE980
:104A200095E016C080911401262F30E0280F311D2B
:104A30002F3F310524F4680F6093140103C08FEFFA
:104A400080931401809114011F928F9381E895E067
:104A50009F938F930E9412070F900F900F900F90CB
:104A60000895833081F128F4813059F08230D1F0FB
:104A70000895853009F449C0B8F1863009F456C06C
:104A8000089580911901681720F4861B80931901FD
:104A900002C010921901809119011F928F9382E731
:104AA00095E054C080911801681720F4861B80930C
:104AB000180102C010921801809118011F928F9363
:104AC00080E695E043C080911701681720F4861BAB
:104AD0008093170102C010921701809117011F9255
:104AE0008F938DE495E032C080911601681720F411
:104AF000861B8093160102C0109216018091160148
:104B00001F928F9388E395E021C08091150168176B
:104B100020F4861B8093150102C01092150180912C
:104B200015011F928F938FE195E010C080911401C1
:104B3000681720F4861B8093140102C010921401A0
:104B4000809114011F928F9384E095E09F938F933F
:104B50000E9412070F900F900F900F900895CF931F
:104B6000C82F1F928F9389E098E09F938F930E94A4
:104B7000120781E090E0A0E0B0E0BC01CD0104C0EC
:104B8000660F771F881F991FCA95D2F70E94071BCF
:104B90000F900F900F900F90CF910C94A816CF9379
:104BA0008B3109F4CBC108F049C08E3009F4DAC169
:104BB00000F5873009F4A9C1A8F4863009F05AC27B
:104BC00080910C03817F8E7F80930C038EE098E0B0
:104BD0000E94790688E39CE00E94790681E0809338
:104BE0001C0391C1883009F45BC08B3009F487C184
:104BF00041C2813109F426C220F4803109F4C6C1D2
:104C000039C2863109F4DDC1893109F033C28CEA39
:104C10009BE00E9479068FE79BE00E94790687E47B
:104C20009BE00E94790680E29BE00E9479068BED72
:104C30009AE00E94790680EB9AE063C1853309F41B
:104C400013C268F4873209F40FC228F48E3108F4D5
:104C500011C28D510CC2893209F406C20BC28334D1
:104C600038F48A3308F002C2883309F448C102C21A
:104C7000833409F4F9C1883409F0FCC10E94A816F4
:104C800087E29CE00E9479069FEF23ED80E391503C
:104C900020408040E1F700C000000E94A61E33C102
:104CA0008CE39CE00E9479068DE09AE00E947906F0
:104CB0000E94B8211F928F938AE09AE09F938F936E
:104CC0000E94120788E09AE00E9479060E94AF21B4
:104CD000C82F85EF99E00E9479061F92CF9380EF4D
:104CE00099E09F938F930E9412078EEE99E00E94A5
:104CF000790684EE99E00E9479068C2F81701F92CC
:104D00008F9381EE99E09F938F930E9412078FED0E
:104D100099E00E94790685ED99E00E947906C1FB31
:104D2000882780F91F928F9382ED99E09F938F934C
:104D30000E94120780ED99E00E94790684EC99E0C8
:104D40000E947906C2FB882780F91F928F9381EC1D
:104D500099E09F938F930E9412078FEB99E00E9436
:104D6000790686EB99E00E947906C3FBCC27C0F94F
:104D70001F92CF9383EB99E09F938F930E9412072A
:104D800081EB99E00E9479060E94C121C82F8DE92C
:104D900099E00E9479061F92CF9388E999E09F934A
:104DA0008F930E94120786E999E00E9479068DE7A9
:104DB00099E00E9479068C2F81701F928F938AE769
:104DC00099E09F938F930E9412078DB79EB78096AC
:104DD0000FB6F8949EBF0FBE8DBF88E799E00E9482
:104DE000790681E699E00E947906C1FB882780F95F
:104DF0001F928F938EE599E09F938F930E941207E5
:104E00008CE599E00E9479068AE499E00E9479068F
:104E1000C2FB882780F91F928F9387E499E09F93C4
:104E20008F930E94120785E499E00E94790683E33C
:104E300099E00E947906C3FB882780F91F928F931F
:104E400080E399E09F938F930E9412078EE299E08E
:104E50000E94790684E299E00E947906C4FB8827C3
:104E600080F91F928F9381E299E09F938F930E9424
:104E700012078FE199E00E9479068DE099E00E9487
:104E80007906C5FB882780F91F928F938AE099E005
:104E90009F938F930E94120788E099E00E94790601
:104EA0008CEE98E00E947906C6FB882780F91F9255
:104EB0008F9389EE98E09F938F930E94120787EE5D
:104EC00098E00E9479068FED98E00E947906C7FB72
:104ED000CC27C0F91F92CF938CED98E09F938F93CE
:104EE0000E9412078AED98E00E9479068DB79EB75E
:104EF0004C960FB6F8949EBF0FBE8DBF04C085E3DD
:104F000098E00E947906C1E0BAC080910C03C82FD6
:104F1000C17080FF09C08AE19CE00E9479068091FF
:104F20000C03817F8E7F47C08EE09CE00E94790653
:104F300080910C03816080930C03E5CF90910C036A
:104F400091FBCC27C0F981E0C827892FC0FB81F9EC
:104F500080930C03CC2319F081E09CE027C083EF01
:104F60009BE0CFCF90910C0392FBCC27C0F981E05E
:104F7000C827892FC0FB82F980930C03CC2319F03A
:104F800084EE9BE013C084ED9BE0BBCF90910C03BB
:104F900093FBCC27C0F981E0C827892FC0FB83F998
:104FA00080930C03CC2351F088EC9BE00E9479069F
:104FB00080910C03816080930C0361C08BEB9BE0BC
:104FC000A0CF82EA9AE00E9479060E944F101F92B9
:104FD0008F9388E89AE09F938F930E9412078091A5
:104FE00010011F928F9381E79AE09F938F930E9405
:104FF0001207809171021F928F938EE59AE09F9322
:105000008F930E941207809111011F928F938BE45E
:105010009AE09F938F930E9412070E944B1E9F93CA
:105020008F937F936F9384E39AE09F938F930E9473
:1050300012078DB79EB746960FB6F8949EBF0FBE67
:105040008DBF61CF0E94A816C091110181E0C827D1
:10505000C0931101CC2329F08AE29AE00E947906DC
:105060000EC08FE19AE04DCF80E001C089530E94CD
:10507000AF2549CF8DE19AE00E947906C0E08C2FE0
:10508000CF91089580E008950C944228CF93C82FC3
:1050900080911C03813071F020F0823009F44BC004
:1050A00042C1E0911201F09113018081823209F036
:1050B0003CC107C0E0911201F0911301808182325E
:1050C00061F48C2F0E944428811104C08C2F0E940F
:1050D000CF252FC081E090E02CC08C2F0E94422869
:1050E000811126C0C431E1F070F4CB3081F0C031C1
:1050F000D1F40E94772481E098E00E94790682E052
:1051000080931C0315C0C93259F0C83361F48EE096
:1051100098E00E94790685E098E00E94790608C030
:1051200010921C0304C18FEF97E00E947906FFC024
:1051300081E08170FEC0C43228F5CE3108F0C1C0D4
:10514000CB30A1F1D0F4C73009F0D3C08EE1809309
:10515000190182E3809318018AE08093170184E1AA
:105160008093160188E08093150188E280931401F2
:1051700085EA96E00E947906BFC0C33149F1C43187
:10518000C1F0B7C0CB3409F4A9C028F4C93289F002
:10519000C83361F0AEC0C13509F49EC0C23509F410
:1051A00099C0CE3409F0A5C06AE09EC00E94772461
:1051B000A3C080911B03882319F010921B039CC08D
:1051C00082EB96E00E94790681E080931C03B1C0D7
:1051D0008CE896E00E9479068AE796E00E947906BC
:1051E000809119011F928F9387E796E09F938F9389
:1051F0000E94120785E796E00E94790683E696E012
:105200000E947906809118011F928F9380E696E0A4
:105210009F938F930E9412078EE596E00E94790675
:105220008FE496E00E947906809117011F928F9378
:105230008CE496E09F938F930E9412078AE496E095
:105240000E94790689E396E00E9479068091160112
:105250001F928F9386E396E09F938F930E9412078D
:1052600084E396E00E9479068FE196E00E94790639
:10527000809115011F928F938CE196E09F938F93FD
:105280000E9412078AE196E00E94790683E096E088
:105290000E947906809114011F928F9380E096E01E
:1052A0009F938F930E9412078EEF95E00E947906DC
:1052B0008DB79EB748960FB6F8949EBF0FBE8DBFB0
:1052C0001BC0CE51EC2FF0E0EC5CFE4F8081809350
:1052D0001B0312C061E003C061E006C06AE0809178
:1052E0001B030E948E2408C080911B030E9431255D
:1052F00003C083EA96E013C080911B03882369F002
:105300001F928F938DE996E09F938F930E941207CF
:105310000F900F900F900F9004C08AE996E00E94C2
:10532000790681E006C010921C0380E002C080E094
:1053300000CFCF9108950E94A2296894B1110C94D6
:10534000312A08950E94162A88F09F5798F0B92FA5
:105350009927B751B0F0E1F0660F771F881F991FAA
:105360001AF0BA95C9F714C0B13091F00E94302AF2
:10537000B1E008950C94302A672F782F8827B85F02
:1053800039F0B93FCCF3869577956795B395D9F702
:105390003EF490958095709561957F4F8F4F9F4F0C
:1053A0000895E89409C097FB3EF490958095709518
:1053B00061957F4F8F4F9F4F9923A9F0F92F96E961
:1053C000BB279395F695879577956795B795F111D6
:1053D000F8CFFAF4BB0F11F460FF1BC06F5F7F4F73
:1053E0008F4F9F4F16C0882311F096E911C0772385
:1053F00021F09EE8872F762F05C0662371F096E88E
:10540000862F70E060E02AF09A95660F771F881F5C
:10541000DAF7880F9695879597F9089557FD905874
:10542000440F551F59F05F3F71F04795880F97FB68
:10543000991F61F09F3F79F0879508951216130622
:105440001406551FF2CF4695F1DF08C01616170651
:105450001806991FF1CF8695710561050894089586
:10546000E894BB2766277727CB0197F908950E9418
:105470004A2A0C94BB2A0E94AD2A38F00E94B42A12
:1054800020F0952311F00C94A42A0C94AA2A11243C
:105490000C94312A0E940E2A70F3959FC1F3950F48
:1054A00050E0551F629FF001729FBB27F00DB11DA8
:1054B000639FAA27F00DB11DAA1F649F6627B00D38
:1054C000A11D661F829F2227B00DA11D621F739F21
:1054D000B00DA11D621F839FA00D611D221F749F2F
:1054E0003327A00D611D231F849F600D211D822F76
:1054F000762F6A2F11249F5750409AF0F1F088239D
:105500004AF0EE0FFF1FBB1F661F771F881F9150C9
:105510005040A9F79E3F510580F00C94A42A0C94AA
:10552000312A5F3FE4F3983ED4F3869577956795EB
:10553000B795F795E7959F5FC1F7FE2B880F911DF3
:105540009695879597F9089597F99F6780E870E099
:1055500060E008959FEF80EC089500240A941616E9
:10556000170618060906089500240A941216130651
:10557000140605060895092E0394000C11F48823DF
:1055800052F0BB0F40F4BF2B11F460FF04C06F5FFB
:105590007F4F8F4F9F4F089597FB072E16F400946F
:1055A00007D077FD09D00E94E62A07FC05D03EF41B
:1055B000909581959F4F0895709561957F4F0895BF
:1055C000EE0FFF1F0590F491E02D0994AA1BBB1B61
:1055D00051E107C0AA1FBB1FA617B70710F0A61BF3
:1055E000B70B881F991F5A95A9F780959095BC0114
:1055F000CD010895F999FECF92BD81BDF89A992702
:1056000080B50895A8E1B0E042E050E00C941D2B75
:10561000262FF999FECF1FBA92BD81BD20BD0FB6CE
:10562000F894FA9AF99A0FBE019608950E94082BF1
:10563000272F0C94092BDC01CB01FC01F999FECF3B
:1056400006C0F2BDE1BDF89A319600B40D9241500A
:0A5650005040B8F70895F894FFCF1A
:10565A000550010000FF2508B50892085C082808D3
:10566A000101EA022808140A321E404D362239CABC
:10567A00037D0347032503EC025F0278029102AA25
:0E568A0002CA02000102030405060708090017
:00000001FF
